{"contracts/SimpleZKBadge.sol":{"SimpleZKBadge":{"abi":[{"anonymous":false,"inputs":[{"indexed":true,"internalType":"uint256","name":"tokenId","type":"uint256"},{"indexed":true,"internalType":"address","name":"recipient","type":"address"},{"indexed":false,"internalType":"string","name":"badgeType","type":"string"}],"name":"BadgeIssued","type":"event"},{"inputs":[{"internalType":"uint256","name":"","type":"uint256"}],"name":"badges","outputs":[{"internalType":"uint256","name":"id","type":"uint256"},{"internalType":"address","name":"owner","type":"address"},{"internalType":"string","name":"badgeType","type":"string"},{"internalType":"string","name":"zkProofHash","type":"string"},{"internalType":"uint256","name":"issuedAt","type":"uint256"}],"stateMutability":"view","type":"function"},{"inputs":[{"internalType":"address","name":"user","type":"address"}],"name":"getUserBadges","outputs":[{"internalType":"uint256[]","name":"","type":"uint256[]"}],"stateMutability":"view","type":"function"},{"inputs":[{"internalType":"address","name":"recipient","type":"address"},{"internalType":"string","name":"badgeType","type":"string"},{"internalType":"string","name":"zkProofHash","type":"string"}],"name":"issueBadge","outputs":[{"internalType":"uint256","name":"","type":"uint256"}],"stateMutability":"nonpayable","type":"function"},{"inputs":[],"name":"totalSupply","outputs":[{"internalType":"uint256","name":"","type":"uint256"}],"stateMutability":"view","type":"function"},{"inputs":[{"internalType":"address","name":"","type":"address"},{"internalType":"uint256","name":"","type":"uint256"}],"name":"userBadges","outputs":[{"internalType":"uint256","name":"","type":"uint256"}],"stateMutability":"view","type":"function"}],"evm":{"bytecode":{"linkReferences":{},"object":"608060405234801561001057600080fd5b5061080b806100206000396000f3fe608060405234801561001057600080fd5b50600436106100575760003560e01c806318160ddd1461005c57806337c245fe1461007357806398e36d8b14610093578063de2cff03146100b7578063df91cc23146100ca575b600080fd5b6000545b6040519081526020015b60405180910390f35b6100866100813660046103fd565b6100dd565b60405161006a919061041f565b6100a66100a1366004610463565b610149565b60405161006a9594939291906104c2565b6100606100c53660046105b4565b610293565b6100606100d8366004610628565b6103b0565b6001600160a01b03811660009081526002602090815260409182902080548351818402810184019094528084526060939283018282801561013d57602002820191906000526020600020905b815481526020019060010190808311610129575b50505050509050919050565b60016020819052600091825260409091208054918101546002820180546001600160a01b03909216929161017c90610652565b80601f01602080910402602001604051908101604052809291908181526020018280546101a890610652565b80156101f55780601f106101ca576101008083540402835291602001916101f5565b820191906000526020600020905b8154815290600101906020018083116101d857829003601f168201915b50505050509080600301805461020a90610652565b80601f016020809104026020016040519081016040528092919081815260200182805461023690610652565b80156102835780601f1061025857610100808354040283529160200191610283565b820191906000526020600020905b81548152906001019060200180831161026657829003601f168201915b5050505050908060040154905085565b6000805481806102a28361068c565b9091555050600080546040805160a0810182528281526001600160a01b0388811660208084019182528385018a8152606085018a90524260808601528688526001918290529490962083518155905195810180546001600160a01b03191696909216959095179055905191929091600282019061031f9082610702565b50606082015160038201906103349082610702565b50608091909101516004909101556001600160a01b0385166000818152600260209081526040808320805460018101825590845291909220018390555182907ff9cf250e6bdee04477a4a03a767fdb479180e4c12c19ef561485cb57e2117414906103a09088906107c2565b60405180910390a3949350505050565b600260205281600052604060002081815481106103cc57600080fd5b90600052602060002001600091509150505481565b80356001600160a01b03811681146103f857600080fd5b919050565b60006020828403121561040f57600080fd5b610418826103e1565b9392505050565b6020808252825182820181905260009190848201906040850190845b818110156104575783518352928401929184019160010161043b565b50909695505050505050565b60006020828403121561047557600080fd5b5035919050565b6000815180845260005b818110156104a257602081850181015186830182015201610486565b506000602082860101526020601f19601f83011685010191505092915050565b8581526001600160a01b038516602082015260a0604082018190526000906104ec9083018661047c565b82810360608401526104fe818661047c565b9150508260808301529695505050505050565b634e487b7160e01b600052604160045260246000fd5b600082601f83011261053857600080fd5b813567ffffffffffffffff8082111561055357610553610511565b604051601f8301601f19908116603f0116810190828211818310171561057b5761057b610511565b8160405283815286602085880101111561059457600080fd5b836020870160208301376000602085830101528094505050505092915050565b6000806000606084860312156105c957600080fd5b6105d2846103e1565b9250602084013567ffffffffffffffff808211156105ef57600080fd5b6105fb87838801610527565b9350604086013591508082111561061157600080fd5b5061061e86828701610527565b9150509250925092565b6000806040838503121561063b57600080fd5b610644836103e1565b946020939093013593505050565b600181811c9082168061066657607f821691505b60208210810361068657634e487b7160e01b600052602260045260246000fd5b50919050565b6000600182016106ac57634e487b7160e01b600052601160045260246000fd5b5060010190565b601f8211156106fd57600081815260208120601f850160051c810160208610156106da5750805b601f850160051c820191505b818110156106f9578281556001016106e6565b5050505b505050565b815167ffffffffffffffff81111561071c5761071c610511565b6107308161072a8454610652565b846106b3565b602080601f831160018114610765576000841561074d5750858301515b600019600386901b1c1916600185901b1785556106f9565b600085815260208120601f198616915b8281101561079457888601518255948401946001909101908401610775565b50858210156107b25787850151600019600388901b60f8161c191681555b5050505050600190811b01905550565b602081526000610418602083018461047c56fea2646970667358221220a5599dec66ec28d00226300a29ec0edef3c35164dc321903fbc1cec8f0994e0264736f6c63430008130033","opcodes":"PUSH1 0x80 PUSH1 0x40 MSTORE CALLVALUE DUP1 ISZERO PUSH2 0x10 JUMPI PUSH1 0x0 DUP1 REVERT JUMPDEST POP PUSH2 0x80B DUP1 PUSH2 0x20 PUSH1 0x0 CODECOPY PUSH1 0x0 RETURN INVALID PUSH1 0x80 PUSH1 0x40 MSTORE CALLVALUE DUP1 ISZERO PUSH2 0x10 JUMPI PUSH1 0x0 DUP1 REVERT JUMPDEST POP PUSH1 0x4 CALLDATASIZE LT PUSH2 0x57 JUMPI PUSH1 0x0 CALLDATALOAD PUSH1 0xE0 SHR DUP1 PUSH4 0x18160DDD EQ PUSH2 0x5C JUMPI DUP1 PUSH4 0x37C245FE EQ PUSH2 0x73 JUMPI DUP1 PUSH4 0x98E36D8B EQ PUSH2 0x93 JUMPI DUP1 PUSH4 0xDE2CFF03 EQ PUSH2 0xB7 JUMPI DUP1 PUSH4 0xDF91CC23 EQ PUSH2 0xCA JUMPI JUMPDEST PUSH1 0x0 DUP1 REVERT JUMPDEST PUSH1 0x0 SLOAD JUMPDEST PUSH1 0x40 MLOAD SWAP1 DUP2 MSTORE PUSH1 0x20 ADD JUMPDEST PUSH1 0x40 MLOAD DUP1 SWAP2 SUB SWAP1 RETURN JUMPDEST PUSH2 0x86 PUSH2 0x81 CALLDATASIZE PUSH1 0x4 PUSH2 0x3FD JUMP JUMPDEST PUSH2 0xDD JUMP JUMPDEST PUSH1 0x40 MLOAD PUSH2 0x6A SWAP2 SWAP1 PUSH2 0x41F JUMP JUMPDEST PUSH2 0xA6 PUSH2 0xA1 CALLDATASIZE PUSH1 0x4 PUSH2 0x463 JUMP JUMPDEST PUSH2 0x149 JUMP JUMPDEST PUSH1 0x40 MLOAD PUSH2 0x6A SWAP6 SWAP5 SWAP4 SWAP3 SWAP2 SWAP1 PUSH2 0x4C2 JUMP JUMPDEST PUSH2 0x60 PUSH2 0xC5 CALLDATASIZE PUSH1 0x4 PUSH2 0x5B4 JUMP JUMPDEST PUSH2 0x293 JUMP JUMPDEST PUSH2 0x60 PUSH2 0xD8 CALLDATASIZE PUSH1 0x4 PUSH2 0x628 JUMP JUMPDEST PUSH2 0x3B0 JUMP JUMPDEST PUSH1 0x1 PUSH1 0x1 PUSH1 0xA0 SHL SUB DUP2 AND PUSH1 0x0 SWAP1 DUP2 MSTORE PUSH1 0x2 PUSH1 0x20 SWAP1 DUP2 MSTORE PUSH1 0x40 SWAP2 DUP3 SWAP1 KECCAK256 DUP1 SLOAD DUP4 MLOAD DUP2 DUP5 MUL DUP2 ADD DUP5 ADD SWAP1 SWAP5 MSTORE DUP1 DUP5 MSTORE PUSH1 0x60 SWAP4 SWAP3 DUP4 ADD DUP3 DUP3 DUP1 ISZERO PUSH2 0x13D JUMPI PUSH1 0x20 MUL DUP3 ADD SWAP2 SWAP1 PUSH1 0x0 MSTORE PUSH1 0x20 PUSH1 0x0 KECCAK256 SWAP1 JUMPDEST DUP2 SLOAD DUP2 MSTORE PUSH1 0x20 ADD SWAP1 PUSH1 0x1 ADD SWAP1 DUP1 DUP4 GT PUSH2 0x129 JUMPI JUMPDEST POP POP POP POP POP SWAP1 POP SWAP2 SWAP1 POP JUMP JUMPDEST PUSH1 0x1 PUSH1 0x20 DUP2 SWAP1 MSTORE PUSH1 0x0 SWAP2 DUP3 MSTORE PUSH1 0x40 SWAP1 SWAP2 KECCAK256 DUP1 SLOAD SWAP2 DUP2 ADD SLOAD PUSH1 0x2 DUP3 ADD DUP1 SLOAD PUSH1 0x1 PUSH1 0x1 PUSH1 0xA0 SHL SUB SWAP1 SWAP3 AND SWAP3 SWAP2 PUSH2 0x17C SWAP1 PUSH2 0x652 JUMP JUMPDEST DUP1 PUSH1 0x1F ADD PUSH1 0x20 DUP1 SWAP2 DIV MUL PUSH1 0x20 ADD PUSH1 0x40 MLOAD SWAP1 DUP2 ADD PUSH1 0x40 MSTORE DUP1 SWAP3 SWAP2 SWAP1 DUP2 DUP2 MSTORE PUSH1 0x20 ADD DUP3 DUP1 SLOAD PUSH2 0x1A8 SWAP1 PUSH2 0x652 JUMP JUMPDEST DUP1 ISZERO PUSH2 0x1F5 JUMPI DUP1 PUSH1 0x1F LT PUSH2 0x1CA JUMPI PUSH2 0x100 DUP1 DUP4 SLOAD DIV MUL DUP4 MSTORE SWAP2 PUSH1 0x20 ADD SWAP2 PUSH2 0x1F5 JUMP JUMPDEST DUP3 ADD SWAP2 SWAP1 PUSH1 0x0 MSTORE PUSH1 0x20 PUSH1 0x0 KECCAK256 SWAP1 JUMPDEST DUP2 SLOAD DUP2 MSTORE SWAP1 PUSH1 0x1 ADD SWAP1 PUSH1 0x20 ADD DUP1 DUP4 GT PUSH2 0x1D8 JUMPI DUP3 SWAP1 SUB PUSH1 0x1F AND DUP3 ADD SWAP2 JUMPDEST POP POP POP POP POP SWAP1 DUP1 PUSH1 0x3 ADD DUP1 SLOAD PUSH2 0x20A SWAP1 PUSH2 0x652 JUMP JUMPDEST DUP1 PUSH1 0x1F ADD PUSH1 0x20 DUP1 SWAP2 DIV MUL PUSH1 0x20 ADD PUSH1 0x40 MLOAD SWAP1 DUP2 ADD PUSH1 0x40 MSTORE DUP1 SWAP3 SWAP2 SWAP1 DUP2 DUP2 MSTORE PUSH1 0x20 ADD DUP3 DUP1 SLOAD PUSH2 0x236 SWAP1 PUSH2 0x652 JUMP JUMPDEST DUP1 ISZERO PUSH2 0x283 JUMPI DUP1 PUSH1 0x1F LT PUSH2 0x258 JUMPI PUSH2 0x100 DUP1 DUP4 SLOAD DIV MUL DUP4 MSTORE SWAP2 PUSH1 0x20 ADD SWAP2 PUSH2 0x283 JUMP JUMPDEST DUP3 ADD SWAP2 SWAP1 PUSH1 0x0 MSTORE PUSH1 0x20 PUSH1 0x0 KECCAK256 SWAP1 JUMPDEST DUP2 SLOAD DUP2 MSTORE SWAP1 PUSH1 0x1 ADD SWAP1 PUSH1 0x20 ADD DUP1 DUP4 GT PUSH2 0x266 JUMPI DUP3 SWAP1 SUB PUSH1 0x1F AND DUP3 ADD SWAP2 JUMPDEST POP POP POP POP POP SWAP1 DUP1 PUSH1 0x4 ADD SLOAD SWAP1 POP DUP6 JUMP JUMPDEST PUSH1 0x0 DUP1 SLOAD DUP2 DUP1 PUSH2 0x2A2 DUP4 PUSH2 0x68C JUMP JUMPDEST SWAP1 SWAP2 SSTORE POP POP PUSH1 0x0 DUP1 SLOAD PUSH1 0x40 DUP1 MLOAD PUSH1 0xA0 DUP2 ADD DUP3 MSTORE DUP3 DUP2 MSTORE PUSH1 0x1 PUSH1 0x1 PUSH1 0xA0 SHL SUB DUP9 DUP2 AND PUSH1 0x20 DUP1 DUP5 ADD SWAP2 DUP3 MSTORE DUP4 DUP6 ADD DUP11 DUP2 MSTORE PUSH1 0x60 DUP6 ADD DUP11 SWAP1 MSTORE TIMESTAMP PUSH1 0x80 DUP7 ADD MSTORE DUP7 DUP9 MSTORE PUSH1 0x1 SWAP2 DUP3 SWAP1 MSTORE SWAP5 SWAP1 SWAP7 KECCAK256 DUP4 MLOAD DUP2 SSTORE SWAP1 MLOAD SWAP6 DUP2 ADD DUP1 SLOAD PUSH1 0x1 PUSH1 0x1 PUSH1 0xA0 SHL SUB NOT AND SWAP7 SWAP1 SWAP3 AND SWAP6 SWAP1 SWAP6 OR SWAP1 SSTORE SWAP1 MLOAD SWAP2 SWAP3 SWAP1 SWAP2 PUSH1 0x2 DUP3 ADD SWAP1 PUSH2 0x31F SWAP1 DUP3 PUSH2 0x702 JUMP JUMPDEST POP PUSH1 0x60 DUP3 ADD MLOAD PUSH1 0x3 DUP3 ADD SWAP1 PUSH2 0x334 SWAP1 DUP3 PUSH2 0x702 JUMP JUMPDEST POP PUSH1 0x80 SWAP2 SWAP1 SWAP2 ADD MLOAD PUSH1 0x4 SWAP1 SWAP2 ADD SSTORE PUSH1 0x1 PUSH1 0x1 PUSH1 0xA0 SHL SUB DUP6 AND PUSH1 0x0 DUP2 DUP2 MSTORE PUSH1 0x2 PUSH1 0x20 SWAP1 DUP2 MSTORE PUSH1 0x40 DUP1 DUP4 KECCAK256 DUP1 SLOAD PUSH1 0x1 DUP2 ADD DUP3 SSTORE SWAP1 DUP5 MSTORE SWAP2 SWAP1 SWAP3 KECCAK256 ADD DUP4 SWAP1 SSTORE MLOAD DUP3 SWAP1 PUSH32 0xF9CF250E6BDEE04477A4A03A767FDB479180E4C12C19EF561485CB57E2117414 SWAP1 PUSH2 0x3A0 SWAP1 DUP9 SWAP1 PUSH2 0x7C2 JUMP JUMPDEST PUSH1 0x40 MLOAD DUP1 SWAP2 SUB SWAP1 LOG3 SWAP5 SWAP4 POP POP POP POP JUMP JUMPDEST PUSH1 0x2 PUSH1 0x20 MSTORE DUP2 PUSH1 0x0 MSTORE PUSH1 0x40 PUSH1 0x0 KECCAK256 DUP2 DUP2 SLOAD DUP2 LT PUSH2 0x3CC JUMPI PUSH1 0x0 DUP1 REVERT JUMPDEST SWAP1 PUSH1 0x0 MSTORE PUSH1 0x20 PUSH1 0x0 KECCAK256 ADD PUSH1 0x0 SWAP2 POP SWAP2 POP POP SLOAD DUP2 JUMP JUMPDEST DUP1 CALLDATALOAD PUSH1 0x1 PUSH1 0x1 PUSH1 0xA0 SHL SUB DUP2 AND DUP2 EQ PUSH2 0x3F8 JUMPI PUSH1 0x0 DUP1 REVERT JUMPDEST SWAP2 SWAP1 POP JUMP JUMPDEST PUSH1 0x0 PUSH1 0x20 DUP3 DUP5 SUB SLT ISZERO PUSH2 0x40F JUMPI PUSH1 0x0 DUP1 REVERT JUMPDEST PUSH2 0x418 DUP3 PUSH2 0x3E1 JUMP JUMPDEST SWAP4 SWAP3 POP POP POP JUMP JUMPDEST PUSH1 0x20 DUP1 DUP3 MSTORE DUP3 MLOAD DUP3 DUP3 ADD DUP2 SWAP1 MSTORE PUSH1 0x0 SWAP2 SWAP1 DUP5 DUP3 ADD SWAP1 PUSH1 0x40 DUP6 ADD SWAP1 DUP5 JUMPDEST DUP2 DUP2 LT ISZERO PUSH2 0x457 JUMPI DUP4 MLOAD DUP4 MSTORE SWAP3 DUP5 ADD SWAP3 SWAP2 DUP5 ADD SWAP2 PUSH1 0x1 ADD PUSH2 0x43B JUMP JUMPDEST POP SWAP1 SWAP7 SWAP6 POP POP POP POP POP POP JUMP JUMPDEST PUSH1 0x0 PUSH1 0x20 DUP3 DUP5 SUB SLT ISZERO PUSH2 0x475 JUMPI PUSH1 0x0 DUP1 REVERT JUMPDEST POP CALLDATALOAD SWAP2 SWAP1 POP JUMP JUMPDEST PUSH1 0x0 DUP2 MLOAD DUP1 DUP5 MSTORE PUSH1 0x0 JUMPDEST DUP2 DUP2 LT ISZERO PUSH2 0x4A2 JUMPI PUSH1 0x20 DUP2 DUP6 ADD DUP2 ADD MLOAD DUP7 DUP4 ADD DUP3 ADD MSTORE ADD PUSH2 0x486 JUMP JUMPDEST POP PUSH1 0x0 PUSH1 0x20 DUP3 DUP7 ADD ADD MSTORE PUSH1 0x20 PUSH1 0x1F NOT PUSH1 0x1F DUP4 ADD AND DUP6 ADD ADD SWAP2 POP POP SWAP3 SWAP2 POP POP JUMP JUMPDEST DUP6 DUP2 MSTORE PUSH1 0x1 PUSH1 0x1 PUSH1 0xA0 SHL SUB DUP6 AND PUSH1 0x20 DUP3 ADD MSTORE PUSH1 0xA0 PUSH1 0x40 DUP3 ADD DUP2 SWAP1 MSTORE PUSH1 0x0 SWAP1 PUSH2 0x4EC SWAP1 DUP4 ADD DUP7 PUSH2 0x47C JUMP JUMPDEST DUP3 DUP2 SUB PUSH1 0x60 DUP5 ADD MSTORE PUSH2 0x4FE DUP2 DUP7 PUSH2 0x47C JUMP JUMPDEST SWAP2 POP POP DUP3 PUSH1 0x80 DUP4 ADD MSTORE SWAP7 SWAP6 POP POP POP POP POP POP JUMP JUMPDEST PUSH4 0x4E487B71 PUSH1 0xE0 SHL PUSH1 0x0 MSTORE PUSH1 0x41 PUSH1 0x4 MSTORE PUSH1 0x24 PUSH1 0x0 REVERT JUMPDEST PUSH1 0x0 DUP3 PUSH1 0x1F DUP4 ADD SLT PUSH2 0x538 JUMPI PUSH1 0x0 DUP1 REVERT JUMPDEST DUP2 CALLDATALOAD PUSH8 0xFFFFFFFFFFFFFFFF DUP1 DUP3 GT ISZERO PUSH2 0x553 JUMPI PUSH2 0x553 PUSH2 0x511 JUMP JUMPDEST PUSH1 0x40 MLOAD PUSH1 0x1F DUP4 ADD PUSH1 0x1F NOT SWAP1 DUP2 AND PUSH1 0x3F ADD AND DUP2 ADD SWAP1 DUP3 DUP3 GT DUP2 DUP4 LT OR ISZERO PUSH2 0x57B JUMPI PUSH2 0x57B PUSH2 0x511 JUMP JUMPDEST DUP2 PUSH1 0x40 MSTORE DUP4 DUP2 MSTORE DUP7 PUSH1 0x20 DUP6 DUP9 ADD ADD GT ISZERO PUSH2 0x594 JUMPI PUSH1 0x0 DUP1 REVERT JUMPDEST DUP4 PUSH1 0x20 DUP8 ADD PUSH1 0x20 DUP4 ADD CALLDATACOPY PUSH1 0x0 PUSH1 0x20 DUP6 DUP4 ADD ADD MSTORE DUP1 SWAP5 POP POP POP POP POP SWAP3 SWAP2 POP POP JUMP JUMPDEST PUSH1 0x0 DUP1 PUSH1 0x0 PUSH1 0x60 DUP5 DUP7 SUB SLT ISZERO PUSH2 0x5C9 JUMPI PUSH1 0x0 DUP1 REVERT JUMPDEST PUSH2 0x5D2 DUP5 PUSH2 0x3E1 JUMP JUMPDEST SWAP3 POP PUSH1 0x20 DUP5 ADD CALLDATALOAD PUSH8 0xFFFFFFFFFFFFFFFF DUP1 DUP3 GT ISZERO PUSH2 0x5EF JUMPI PUSH1 0x0 DUP1 REVERT JUMPDEST PUSH2 0x5FB DUP8 DUP4 DUP9 ADD PUSH2 0x527 JUMP JUMPDEST SWAP4 POP PUSH1 0x40 DUP7 ADD CALLDATALOAD SWAP2 POP DUP1 DUP3 GT ISZERO PUSH2 0x611 JUMPI PUSH1 0x0 DUP1 REVERT JUMPDEST POP PUSH2 0x61E DUP7 DUP3 DUP8 ADD PUSH2 0x527 JUMP JUMPDEST SWAP2 POP POP SWAP3 POP SWAP3 POP SWAP3 JUMP JUMPDEST PUSH1 0x0 DUP1 PUSH1 0x40 DUP4 DUP6 SUB SLT ISZERO PUSH2 0x63B JUMPI PUSH1 0x0 DUP1 REVERT JUMPDEST PUSH2 0x644 DUP4 PUSH2 0x3E1 JUMP JUMPDEST SWAP5 PUSH1 0x20 SWAP4 SWAP1 SWAP4 ADD CALLDATALOAD SWAP4 POP POP POP JUMP JUMPDEST PUSH1 0x1 DUP2 DUP2 SHR SWAP1 DUP3 AND DUP1 PUSH2 0x666 JUMPI PUSH1 0x7F DUP3 AND SWAP2 POP JUMPDEST PUSH1 0x20 DUP3 LT DUP2 SUB PUSH2 0x686 JUMPI PUSH4 0x4E487B71 PUSH1 0xE0 SHL PUSH1 0x0 MSTORE PUSH1 0x22 PUSH1 0x4 MSTORE PUSH1 0x24 PUSH1 0x0 REVERT JUMPDEST POP SWAP2 SWAP1 POP JUMP JUMPDEST PUSH1 0x0 PUSH1 0x1 DUP3 ADD PUSH2 0x6AC JUMPI PUSH4 0x4E487B71 PUSH1 0xE0 SHL PUSH1 0x0 MSTORE PUSH1 0x11 PUSH1 0x4 MSTORE PUSH1 0x24 PUSH1 0x0 REVERT JUMPDEST POP PUSH1 0x1 ADD SWAP1 JUMP JUMPDEST PUSH1 0x1F DUP3 GT ISZERO PUSH2 0x6FD JUMPI PUSH1 0x0 DUP2 DUP2 MSTORE PUSH1 0x20 DUP2 KECCAK256 PUSH1 0x1F DUP6 ADD PUSH1 0x5 SHR DUP2 ADD PUSH1 0x20 DUP7 LT ISZERO PUSH2 0x6DA JUMPI POP DUP1 JUMPDEST PUSH1 0x1F DUP6 ADD PUSH1 0x5 SHR DUP3 ADD SWAP2 POP JUMPDEST DUP2 DUP2 LT ISZERO PUSH2 0x6F9 JUMPI DUP3 DUP2 SSTORE PUSH1 0x1 ADD PUSH2 0x6E6 JUMP JUMPDEST POP POP POP JUMPDEST POP POP POP JUMP JUMPDEST DUP2 MLOAD PUSH8 0xFFFFFFFFFFFFFFFF DUP2 GT ISZERO PUSH2 0x71C JUMPI PUSH2 0x71C PUSH2 0x511 JUMP JUMPDEST PUSH2 0x730 DUP2 PUSH2 0x72A DUP5 SLOAD PUSH2 0x652 JUMP JUMPDEST DUP5 PUSH2 0x6B3 JUMP JUMPDEST PUSH1 0x20 DUP1 PUSH1 0x1F DUP4 GT PUSH1 0x1 DUP2 EQ PUSH2 0x765 JUMPI PUSH1 0x0 DUP5 ISZERO PUSH2 0x74D JUMPI POP DUP6 DUP4 ADD MLOAD JUMPDEST PUSH1 0x0 NOT PUSH1 0x3 DUP7 SWAP1 SHL SHR NOT AND PUSH1 0x1 DUP6 SWAP1 SHL OR DUP6 SSTORE PUSH2 0x6F9 JUMP JUMPDEST PUSH1 0x0 DUP6 DUP2 MSTORE PUSH1 0x20 DUP2 KECCAK256 PUSH1 0x1F NOT DUP7 AND SWAP2 JUMPDEST DUP3 DUP2 LT ISZERO PUSH2 0x794 JUMPI DUP9 DUP7 ADD MLOAD DUP3 SSTORE SWAP5 DUP5 ADD SWAP5 PUSH1 0x1 SWAP1 SWAP2 ADD SWAP1 DUP5 ADD PUSH2 0x775 JUMP JUMPDEST POP DUP6 DUP3 LT ISZERO PUSH2 0x7B2 JUMPI DUP8 DUP6 ADD MLOAD PUSH1 0x0 NOT PUSH1 0x3 DUP9 SWAP1 SHL PUSH1 0xF8 AND SHR NOT AND DUP2 SSTORE JUMPDEST POP POP POP POP POP PUSH1 0x1 SWAP1 DUP2 SHL ADD SWAP1 SSTORE POP JUMP JUMPDEST PUSH1 0x20 DUP2 MSTORE PUSH1 0x0 PUSH2 0x418 PUSH1 0x20 DUP4 ADD DUP5 PUSH2 0x47C JUMP INVALID LOG2 PUSH5 0x6970667358 0x22 SLT KECCAK256 0xA5 MSIZE SWAP14 0xEC PUSH7 0xEC28D00226300A 0x29 0xEC 0xE 0xDE RETURN 0xC3 MLOAD PUSH5 0xDC321903FB 0xC1 0xCE 0xC8 CREATE SWAP10 0x4E MUL PUSH5 0x736F6C6343 STOP ADDMOD SGT STOP CALLER "},"methodIdentifiers":{"badges(uint256)":"98e36d8b","getUserBadges(address)":"37c245fe","issueBadge(address,string,string)":"de2cff03","totalSupply()":"18160ddd","userBadges(address,uint256)":"df91cc23"}}}}}