{
  "_format": "hh-sol-artifact-1",
  "contractName": "ProofRegistry",
  "sourceName": "contracts/ProofRegistry.sol",
  "abi": [
    {
      "anonymous": false,
      "inputs": [
        {
          "indexed": true,
          "internalType": "address",
          "name": "previousOwner",
          "type": "address"
        },
        {
          "indexed": true,
          "internalType": "address",
          "name": "newOwner",
          "type": "address"
        }
      ],
      "name": "OwnershipTransferred",
      "type": "event"
    },
    {
      "anonymous": false,
      "inputs": [
        {
          "indexed": true,
          "internalType": "string",
          "name": "proofHash",
          "type": "string"
        },
        {
          "indexed": true,
          "internalType": "address",
          "name": "user",
          "type": "address"
        }
      ],
      "name": "ProofRegistered",
      "type": "event"
    },
    {
      "anonymous": false,
      "inputs": [
        {
          "indexed": true,
          "internalType": "string",
          "name": "proofHash",
          "type": "string"
        }
      ],
      "name": "ProofRevoked",
      "type": "event"
    },
    {
      "inputs": [
        {
          "internalType": "string",
          "name": "proofHash",
          "type": "string"
        }
      ],
      "name": "getProof",
      "outputs": [
        {
          "components": [
            {
              "internalType": "string",
              "name": "proofHash",
              "type": "string"
            },
            {
              "internalType": "address",
              "name": "user",
              "type": "address"
            },
            {
              "internalType": "uint256",
              "name": "timestamp",
              "type": "uint256"
            },
            {
              "internalType": "bool",
              "name": "isValid",
              "type": "bool"
            }
          ],
          "internalType": "struct ProofRegistry.Proof",
          "name": "",
          "type": "tuple"
        }
      ],
      "stateMutability": "view",
      "type": "function"
    },
    {
      "inputs": [
        {
          "internalType": "address",
          "name": "user",
          "type": "address"
        }
      ],
      "name": "getUserProofs",
      "outputs": [
        {
          "internalType": "string[]",
          "name": "",
          "type": "string[]"
        }
      ],
      "stateMutability": "view",
      "type": "function"
    },
    {
      "inputs": [],
      "name": "owner",
      "outputs": [
        {
          "internalType": "address",
          "name": "",
          "type": "address"
        }
      ],
      "stateMutability": "view",
      "type": "function"
    },
    {
      "inputs": [
        {
          "internalType": "string",
          "name": "",
          "type": "string"
        }
      ],
      "name": "proofs",
      "outputs": [
        {
          "internalType": "string",
          "name": "proofHash",
          "type": "string"
        },
        {
          "internalType": "address",
          "name": "user",
          "type": "address"
        },
        {
          "internalType": "uint256",
          "name": "timestamp",
          "type": "uint256"
        },
        {
          "internalType": "bool",
          "name": "isValid",
          "type": "bool"
        }
      ],
      "stateMutability": "view",
      "type": "function"
    },
    {
      "inputs": [
        {
          "internalType": "string",
          "name": "proofHash",
          "type": "string"
        },
        {
          "internalType": "address",
          "name": "user",
          "type": "address"
        }
      ],
      "name": "registerProof",
      "outputs": [],
      "stateMutability": "nonpayable",
      "type": "function"
    },
    {
      "inputs": [],
      "name": "renounceOwnership",
      "outputs": [],
      "stateMutability": "nonpayable",
      "type": "function"
    },
    {
      "inputs": [
        {
          "internalType": "string",
          "name": "proofHash",
          "type": "string"
        }
      ],
      "name": "revokeProof",
      "outputs": [],
      "stateMutability": "nonpayable",
      "type": "function"
    },
    {
      "inputs": [
        {
          "internalType": "address",
          "name": "newOwner",
          "type": "address"
        }
      ],
      "name": "transferOwnership",
      "outputs": [],
      "stateMutability": "nonpayable",
      "type": "function"
    },
    {
      "inputs": [
        {
          "internalType": "address",
          "name": "",
          "type": "address"
        },
        {
          "internalType": "uint256",
          "name": "",
          "type": "uint256"
        }
      ],
      "name": "userProofs",
      "outputs": [
        {
          "internalType": "string",
          "name": "",
          "type": "string"
        }
      ],
      "stateMutability": "view",
      "type": "function"
    },
    {
      "inputs": [
        {
          "internalType": "string",
          "name": "proofHash",
          "type": "string"
        }
      ],
      "name": "verifyProof",
      "outputs": [
        {
          "internalType": "bool",
          "name": "",
          "type": "bool"
        }
      ],
      "stateMutability": "view",
      "type": "function"
    }
  ],
  "bytecode": "0x608060405234801561001057600080fd5b5061001a3361001f565b61006f565b600080546001600160a01b038381166001600160a01b0319831681178455604051919092169283917f8be0079c531659141344cd1fd0a4f28419497f9722a3daafe3b4186f6b6457e09190a35050565b610dd18061007e6000396000f3fe608060405234801561001057600080fd5b506004361061009e5760003560e01c8063715018a611610066578063715018a6146101435780638da5cb5b1461014b5780638f1bb8c314610166578063d57763a114610179578063f2fde38b1461019957600080fd5b8063234155f9146100a35780632640df77146100b8578063373b58e6146100e05780633b18f6911461010057806346bdfb8014610123575b600080fd5b6100b66100b13660046109f4565b6101ac565b005b6100cb6100c63660046109f4565b61029f565b60405190151581526020015b60405180910390f35b6100f36100ee366004610a4d565b610304565b6040516100d79190610ac7565b61011361010e3660046109f4565b6103bd565b6040516100d79493929190610ae1565b610136610131366004610b1b565b610487565b6040516100d79190610b36565b6100b6610576565b6000546040516001600160a01b0390911681526020016100d7565b6100b6610174366004610b98565b61058a565b61018c6101873660046109f4565b61071e565b6040516100d79190610be6565b6100b66101a7366004610b1b565b61082e565b6101b46108a7565b60006001826040516101c69190610c36565b90815260405190819003602001902080546101e090610c52565b90501161022b5760405162461bcd60e51b8152602060048201526014602482015273141c9bdbd988191bd95cc81b9bdd08195e1a5cdd60621b60448201526064015b60405180910390fd5b600060018260405161023d9190610c36565b908152604051908190036020018120600301805492151560ff199093169290921790915561026c908290610c36565b604051908190038120907f45439cefef7514b7de4796670cc5a1c32df40ac6e64d9335fb14fd39c06bb21d90600090a250565b60006001826040516102b19190610c36565b9081526040519081900360200190206003015460ff1680156102fe575060006001836040516102e09190610c36565b90815260405190819003602001902080546102fa90610c52565b9050115b92915050565b6002602052816000526040600020818154811061032057600080fd5b9060005260206000200160009150915050805461033c90610c52565b80601f016020809104026020016040519081016040528092919081815260200182805461036890610c52565b80156103b55780601f1061038a576101008083540402835291602001916103b5565b820191906000526020600020905b81548152906001019060200180831161039857829003601f168201915b505050505081565b80516020818301810180516001825292820191909301209152805481906103e390610c52565b80601f016020809104026020016040519081016040528092919081815260200182805461040f90610c52565b801561045c5780601f106104315761010080835404028352916020019161045c565b820191906000526020600020905b81548152906001019060200180831161043f57829003601f168201915b505050506001830154600284015460039094015492936001600160a01b039091169290915060ff1684565b6001600160a01b0381166000908152600260209081526040808320805482518185028101850190935280835260609492939192909184015b8282101561056b5783829060005260206000200180546104de90610c52565b80601f016020809104026020016040519081016040528092919081815260200182805461050a90610c52565b80156105575780601f1061052c57610100808354040283529160200191610557565b820191906000526020600020905b81548152906001019060200180831161053a57829003601f168201915b5050505050815260200190600101906104bf565b505050509050919050565b61057e6108a7565b6105886000610901565b565b6105926108a7565b6001826040516105a29190610c36565b90815260405190819003602001902080546105bc90610c52565b1590506106025760405162461bcd60e51b815260206004820152601460248201527350726f6f6620616c72656164792065786973747360601b6044820152606401610222565b6040518060800160405280838152602001826001600160a01b031681526020014281526020016001151581525060018360405161063f9190610c36565b9081526040519081900360200190208151819061065c9082610cdb565b50602082810151600183810180546001600160a01b0319166001600160a01b039384161790556040808601516002808701919091556060909601516003909501805460ff1916951515959095179094559085166000908152938252918320805492830181558352909120016106d18382610cdb565b50806001600160a01b0316826040516106ea9190610c36565b604051908190038120907fe0f110325018924c898441e5a52216b25f711d8beaa3cb5f4412a5a5cadf9e1090600090a35050565b604080516080810182526060808252600060208301819052828401819052908201529051600190610750908490610c36565b908152602001604051809103902060405180608001604052908160008201805461077990610c52565b80601f01602080910402602001604051908101604052809291908181526020018280546107a590610c52565b80156107f25780601f106107c7576101008083540402835291602001916107f2565b820191906000526020600020905b8154815290600101906020018083116107d557829003601f168201915b505050918352505060018201546001600160a01b031660208201526002820154604082015260039091015460ff16151560609091015292915050565b6108366108a7565b6001600160a01b03811661089b5760405162461bcd60e51b815260206004820152602660248201527f4f776e61626c653a206e6577206f776e657220697320746865207a65726f206160448201526564647265737360d01b6064820152608401610222565b6108a481610901565b50565b6000546001600160a01b031633146105885760405162461bcd60e51b815260206004820181905260248201527f4f776e61626c653a2063616c6c6572206973206e6f7420746865206f776e65726044820152606401610222565b600080546001600160a01b038381166001600160a01b0319831681178455604051919092169283917f8be0079c531659141344cd1fd0a4f28419497f9722a3daafe3b4186f6b6457e09190a35050565b634e487b7160e01b600052604160045260246000fd5b600082601f83011261097857600080fd5b813567ffffffffffffffff8082111561099357610993610951565b604051601f8301601f19908116603f011681019082821181831017156109bb576109bb610951565b816040528381528660208588010111156109d457600080fd5b836020870160208301376000602085830101528094505050505092915050565b600060208284031215610a0657600080fd5b813567ffffffffffffffff811115610a1d57600080fd5b610a2984828501610967565b949350505050565b80356001600160a01b0381168114610a4857600080fd5b919050565b60008060408385031215610a6057600080fd5b610a6983610a31565b946020939093013593505050565b60005b83811015610a92578181015183820152602001610a7a565b50506000910152565b60008151808452610ab3816020860160208601610a77565b601f01601f19169290920160200192915050565b602081526000610ada6020830184610a9b565b9392505050565b608081526000610af46080830187610a9b565b6001600160a01b039590951660208301525060408101929092521515606090910152919050565b600060208284031215610b2d57600080fd5b610ada82610a31565b6000602080830181845280855180835260408601915060408160051b870101925083870160005b82811015610b8b57603f19888603018452610b79858351610a9b565b94509285019290850190600101610b5d565b5092979650505050505050565b60008060408385031215610bab57600080fd5b823567ffffffffffffffff811115610bc257600080fd5b610bce85828601610967565b925050610bdd60208401610a31565b90509250929050565b602081526000825160806020840152610c0260a0840182610a9b565b905060018060a01b036020850151166040840152604084015160608401526060840151151560808401528091505092915050565b60008251610c48818460208701610a77565b9190910192915050565b600181811c90821680610c6657607f821691505b602082108103610c8657634e487b7160e01b600052602260045260246000fd5b50919050565b601f821115610cd657600081815260208120601f850160051c81016020861015610cb35750805b601f850160051c820191505b81811015610cd257828155600101610cbf565b5050505b505050565b815167ffffffffffffffff811115610cf557610cf5610951565b610d0981610d038454610c52565b84610c8c565b602080601f831160018114610d3e5760008415610d265750858301515b600019600386901b1c1916600185901b178555610cd2565b600085815260208120601f198616915b82811015610d6d57888601518255948401946001909101908401610d4e565b5085821015610d8b5787850151600019600388901b60f8161c191681555b5050505050600190811b0190555056fea2646970667358221220cb60fc885e63aa879cf51e8d3a8eedd05151c48ffe0b95229950847c490a6fd964736f6c63430008130033",
  "linkReferences": {},
  "deployedLinkReferences": {}
}