{
  "_format": "hh-sol-artifact-1",
  "contractName": "SimpleZKBadge",
  "sourceName": "contracts/SimpleZKBadge.sol",
  "abi": [
    {
      "anonymous": false,
      "inputs": [
        {
          "indexed": true,
          "internalType": "uint256",
          "name": "tokenId",
          "type": "uint256"
        },
        {
          "indexed": true,
          "internalType": "address",
          "name": "recipient",
          "type": "address"
        },
        {
          "indexed": false,
          "internalType": "string",
          "name": "badgeType",
          "type": "string"
        }
      ],
      "name": "BadgeIssued",
      "type": "event"
    },
    {
      "inputs": [
        {
          "internalType": "uint256",
          "name": "",
          "type": "uint256"
        }
      ],
      "name": "badges",
      "outputs": [
        {
          "internalType": "uint256",
          "name": "id",
          "type": "uint256"
        },
        {
          "internalType": "address",
          "name": "owner",
          "type": "address"
        },
        {
          "internalType": "string",
          "name": "badgeType",
          "type": "string"
        },
        {
          "internalType": "string",
          "name": "zkProofHash",
          "type": "string"
        },
        {
          "internalType": "uint256",
          "name": "issuedAt",
          "type": "uint256"
        }
      ],
      "stateMutability": "view",
      "type": "function"
    },
    {
      "inputs": [
        {
          "internalType": "address",
          "name": "user",
          "type": "address"
        }
      ],
      "name": "getUserBadges",
      "outputs": [
        {
          "internalType": "uint256[]",
          "name": "",
          "type": "uint256[]"
        }
      ],
      "stateMutability": "view",
      "type": "function"
    },
    {
      "inputs": [
        {
          "internalType": "address",
          "name": "recipient",
          "type": "address"
        },
        {
          "internalType": "string",
          "name": "badgeType",
          "type": "string"
        },
        {
          "internalType": "string",
          "name": "zkProofHash",
          "type": "string"
        }
      ],
      "name": "issueBadge",
      "outputs": [
        {
          "internalType": "uint256",
          "name": "",
          "type": "uint256"
        }
      ],
      "stateMutability": "nonpayable",
      "type": "function"
    },
    {
      "inputs": [],
      "name": "totalSupply",
      "outputs": [
        {
          "internalType": "uint256",
          "name": "",
          "type": "uint256"
        }
      ],
      "stateMutability": "view",
      "type": "function"
    },
    {
      "inputs": [
        {
          "internalType": "address",
          "name": "",
          "type": "address"
        },
        {
          "internalType": "uint256",
          "name": "",
          "type": "uint256"
        }
      ],
      "name": "userBadges",
      "outputs": [
        {
          "internalType": "uint256",
          "name": "",
          "type": "uint256"
        }
      ],
      "stateMutability": "view",
      "type": "function"
    }
  ],
  "bytecode": "0x608060405234801561001057600080fd5b5061080b806100206000396000f3fe608060405234801561001057600080fd5b50600436106100575760003560e01c806318160ddd1461005c57806337c245fe1461007357806398e36d8b14610093578063de2cff03146100b7578063df91cc23146100ca575b600080fd5b6000545b6040519081526020015b60405180910390f35b6100866100813660046103fd565b6100dd565b60405161006a919061041f565b6100a66100a1366004610463565b610149565b60405161006a9594939291906104c2565b6100606100c53660046105b4565b610293565b6100606100d8366004610628565b6103b0565b6001600160a01b03811660009081526002602090815260409182902080548351818402810184019094528084526060939283018282801561013d57602002820191906000526020600020905b815481526020019060010190808311610129575b50505050509050919050565b60016020819052600091825260409091208054918101546002820180546001600160a01b03909216929161017c90610652565b80601f01602080910402602001604051908101604052809291908181526020018280546101a890610652565b80156101f55780601f106101ca576101008083540402835291602001916101f5565b820191906000526020600020905b8154815290600101906020018083116101d857829003601f168201915b50505050509080600301805461020a90610652565b80601f016020809104026020016040519081016040528092919081815260200182805461023690610652565b80156102835780601f1061025857610100808354040283529160200191610283565b820191906000526020600020905b81548152906001019060200180831161026657829003601f168201915b5050505050908060040154905085565b6000805481806102a28361068c565b9091555050600080546040805160a0810182528281526001600160a01b0388811660208084019182528385018a8152606085018a90524260808601528688526001918290529490962083518155905195810180546001600160a01b03191696909216959095179055905191929091600282019061031f9082610702565b50606082015160038201906103349082610702565b50608091909101516004909101556001600160a01b0385166000818152600260209081526040808320805460018101825590845291909220018390555182907ff9cf250e6bdee04477a4a03a767fdb479180e4c12c19ef561485cb57e2117414906103a09088906107c2565b60405180910390a3949350505050565b600260205281600052604060002081815481106103cc57600080fd5b90600052602060002001600091509150505481565b80356001600160a01b03811681146103f857600080fd5b919050565b60006020828403121561040f57600080fd5b610418826103e1565b9392505050565b6020808252825182820181905260009190848201906040850190845b818110156104575783518352928401929184019160010161043b565b50909695505050505050565b60006020828403121561047557600080fd5b5035919050565b6000815180845260005b818110156104a257602081850181015186830182015201610486565b506000602082860101526020601f19601f83011685010191505092915050565b8581526001600160a01b038516602082015260a0604082018190526000906104ec9083018661047c565b82810360608401526104fe818661047c565b9150508260808301529695505050505050565b634e487b7160e01b600052604160045260246000fd5b600082601f83011261053857600080fd5b813567ffffffffffffffff8082111561055357610553610511565b604051601f8301601f19908116603f0116810190828211818310171561057b5761057b610511565b8160405283815286602085880101111561059457600080fd5b836020870160208301376000602085830101528094505050505092915050565b6000806000606084860312156105c957600080fd5b6105d2846103e1565b9250602084013567ffffffffffffffff808211156105ef57600080fd5b6105fb87838801610527565b9350604086013591508082111561061157600080fd5b5061061e86828701610527565b9150509250925092565b6000806040838503121561063b57600080fd5b610644836103e1565b946020939093013593505050565b600181811c9082168061066657607f821691505b60208210810361068657634e487b7160e01b600052602260045260246000fd5b50919050565b6000600182016106ac57634e487b7160e01b600052601160045260246000fd5b5060010190565b601f8211156106fd57600081815260208120601f850160051c810160208610156106da5750805b601f850160051c820191505b818110156106f9578281556001016106e6565b5050505b505050565b815167ffffffffffffffff81111561071c5761071c610511565b6107308161072a8454610652565b846106b3565b602080601f831160018114610765576000841561074d5750858301515b600019600386901b1c1916600185901b1785556106f9565b600085815260208120601f198616915b8281101561079457888601518255948401946001909101908401610775565b50858210156107b25787850151600019600388901b60f8161c191681555b5050505050600190811b01905550565b602081526000610418602083018461047c56fea2646970667358221220a5599dec66ec28d00226300a29ec0edef3c35164dc321903fbc1cec8f0994e0264736f6c63430008130033",
  "linkReferences": {},
  "deployedLinkReferences": {}
}